:400000000010002011000000E5010000E501000010B500F0A1FB00F0EDF8C04610B50B4C12232360182000F021FBC022D200084B1A60084A084B1A600422084B1A603C326E
:40004000074B1A600023236010BDC046300010400003014040FF008000000140280003400401014010B572B6094A0A4B1A604022094B1A60C0225203084B1A605322084BBB
:400080001A60084A084B1A60FFF7C8FF10BDC046EEEE000000030240000204400802044000030440A46D1800080304400000000000000000000000000000000000000000A3
:4000C0000000000000000000000000000000000000000000000000000000000000000000000000000000000000000000000000000000000000000000000000000000000000
:4001000010B5064C2378002B07D1054B002B02D0044800E000BF0123237010BD0001002000000000EC0B0000084B10B5002B03D00749084800E000BF07480368002B00D12B
:4001400010BD064B002BFBD09847F9E70000000004010020EC0B0000800000200000000070B562B606211D4800F05CF906211C4800F076F900F098F800F08CF900F038F9E2
:40018000C307F9D516484479027841788378C57800794A405A402B00534043409C421AD114E0052B05D00E4AD25C05320B49CA540AE00A4C21786078A678E278257941400A
:4001C00071404A406A40E254013300E00023052BE7DD00F065F900F011F9CDE72C0100202401002010B500F0D5FC03680C2B00D1FEE7FEE770B50F4E0F4D13E029686B6833
:40020000AC68002202E001C901C30432A242FAD1E868002202E0002102C304328242FAD11035013E002EE9D100F0BAFCFFF798FFFEE7C04601000000300C000010B5002385
:400240000AE0032B03D89A000849505800E008489900084A885001331F2BF2D9FFF702FF80229205044B1A6010BDC04600000000E50100000000002008ED00E010B5082028
:4002800000F028F910BDC04610B500F01DF810BD10B5044A1368802109060B431360FFF7EDFF10BD0000094010B5064B1B78002B04D1FFF7E9FF0122024B1A70FFF7E8FF6E
:4002C00010BDC0461C01002010B500241B4B1C601B4A1C4B1A601C4B1C4A13601C4A14601C491D4A11601D4A13601D4B1C60082000F0FAF80321082000F014F919490820EB
:4003000000F0FEF8184B1C60184B1C604C22FF32174B1A60174B1C60174B1C60174B1C603C3AFF3A164B1A70164B1C70164B1C60164B1C60164B1C7010BDC04600000940BA
:4003400077080040600009400701008000030940040309401000FE0010030940000209400402094089070000C80E0940880E0940480F0940080F0940C80F0940880F09405F
:40038000320100204801002034010020380100205401002010B50E4A13685B005B08136000230C490B600C490B600C4804680C49214001600B490B600B490B6010210B4B16
:4003C00019701368802109060B43136010BDC04600000940680009406C00094060000940FF5CFFFF880F0940C80F094032010020014B1878C0B270474801002010B5082056
:4004000000F072F8064A14780F231C4013780D218B431370082000F05DF8200010BDC0464801002070B504000D0000280ED0082000F05AF8064B1C60064B1D600023064A71
:400440001360064A1360082000F044F870BDC0464401002040010020340100204C01002070B504000D0000280CD0082000F03CF8054B1C60054B1D600022054B1A60082004
:4004800000F028F870BDC046500100203C010020380100200022014B1A607047340100200022014B1A60704738010020024A1168024B0B401360704700000740FFFFFFBF5C
:4004C000034B18688023DB05184000D001207047000007401F2318401E3B8340014A13607047C04600E100E01F2318401E3B8340014A13607047C04680E100E001BE70478A
:4005000070B504000D000F2802D90020FFF7F6FF1034A40080239B059C4664442068256070BDC04670B504000E00032902D90020FFF7E4FF0F2C02D90020FFF7DFFF03250A
:400540002540ED00063500F018F9A408A400074B9C46644421680323AB4099430B003100A9401943216000F00CF970BD00E400E010B5040006E0084B586800F0F5F8074B72
:400580009C46644480231B029C42F4D8024B9868604300F0E9F810BD840000200080FFFF30B583B000F0CEF8002849D000F0E5F80400244B196889001C2319401831224BF0
:4005C0001B689B0803221340D940204B1A68204B1340204A4A438020C00184466244D20B013A5205520D1343A02252031A431000192902D8184A13430CE0184BCB181B7890
:400600001A39174A525C9A18FF2A00D9FF229205030013430D4A1360124D2B680193302000F08EFA104A13688021C9050B4313601420FFF79DFF019B2B60200000F0A1F8E0
:4006400003B030BD080F0340280003400800074000F800C040420F000000D43FCDF1FF0FF00B00003000104000000740F0B583B0040018280BD01C2809D0202807D024285D
:4006800005D0282803D02C2801D0302849D100F074F80190FFF714FF002803D0FFF706FF012600E00026214A136807218B4313601F4BE3181B78DBB21E4A13601E4A136800
:4006C0008B4313601D4803687F22934319001C4BE3181B7813400B430360322000F044F8182C16D9114F3B680725AB431A0023001C3B9B082B4013433B60322000F034F891
:400700003A68AA432300183B9B082C001C4014433C60012E01D1FFF743FF019800F031F802E00020FFF7EAFE03B0F0BD080F0340CDF1FF0F0C0F0340100F0340180F03401B
:40074000B4F1FF0F034B1B68002B01DA012000E00020704700000740014A024B1A6070476588EDAC380003400230800803D001300238FCD1C046C0467047EFF3108072B6E4
:40078000704780F31088704710B5CA4B1B68002B00D09847C84B1B68DB0702D50022C74B1A60C74B1B789B0622D4C64B1A680223FF331A421CD0C24B1B78DB070AD5C24AB1
:4007C000137802218B431370117809230B43DBB213700AE0BC4A137820218B431370117870235B420B43DBB213700022B44B1A70B34B1B789B0600D55AE1B14B1B78DB0666
:4008000000D453E1AF4B1B689B0740D50222AF4B1A60AF490B681D321A40096880231B020B4000D001239B18AA4A1278D2B2934206D2A54A117804230B43DBB2137006E01B
:40084000A44A12789B1AA4490A68D31A0B60A24B1A68A24B1A600023A14A13609D4A1370A04B1A68802149020A431A6019689E4A0A401A60944A137802218B431370117820
:4008800001230B43DBB2137010228D4B1A708D4B1B681B0739D508228C4B1A60934B1B689B040CD414E0924B1A68924909688A1891490968C9B211701A6801321A608F4BAB
:4008C0001B68DB06EFD1894A11688D4B0B4013608C4B1B689B0605D57B4A117840230B43DBB213700022884B1A60884A854B1A60754A137820218B431370117810230B439D
:40090000DBB213706E4B10221A706E4B1B685B0648D501227E4B1A607E4B1B68DB0610D50F326F4B1A606D4B1A686B4B1A60664A117802230B43DBB213701222604B1A70FC
:4009400025E0754B1B686A4A12689B1A072B03D804226D4B1A6011E0082B06D1634A1368A02109020B43136008E0604A1368802189010B4313600822634B1A60524A1178C7
:4009800020230B43DBB2137011224D4B1A70634A4E4B1A60624A116808230B4313600122604B1A60604B1B681B072AD55A4B1B684F4A1068181A0838082802D900240820D7
:4009C0000EE001240CE04A4B1A684A4909688A1849490968C9B211701A6801321A6001380028F0D1002C08D0404A1368802109020B4313600022444B1A600822414B1A601A
:400A000025E0494B1B685B0721D53B4B1B68384A1168414A126891420DD20121414A1160334A1168334800684118DBB20B7013680133136008E002223A4B1A60224A11780D
:400A400040230B43DBB2137004222E4B1A60374B1B68DB0620D42BE01F4B1A68344B1B689A420CD21C4B1A68324909688A181278D2B231490A601A6801321A600CE0FF226A
:400A80002D4B1A60134B1B78DBB20A2B04D8114A13780133DBB213700D4B1B681F221340082BD9D10F3A254B1A6001E0FFF772FC10BDC046200100208C0E0940880E0940F1
:400AC000320100204C0F094048010020400F094008020940540100204C01002034010020880F094004020940FFFFFEFF6000094038010020500100204003094008030940F7
:400B0000FF5FFFFFC00F0940C80F0940ED0F0000800E0940640009403C010020FF0F0000480F09406C000940CC0F09408C0F0940400100204401002040020940800F0940B0
:400B400070B50400FFF719FE0500102C05D8104A136803218B43136016E0202C07D80C490B6803229343023A13430B600CE0302C07D807490B6803229343013A13430B6025
:400B800002E00020FFF7BAFC2800FFF7FAFD70BD30001040014B18687047C046F80000200E4B70B500251E000D4CE41AA410A54204D0AB00F35898470135F8E700F026F8A5
:400BC000084B00251E00084CE41AA410A54204D0AB00F35898470135F8E770BD180C0000180C0000180C0000200C000000000000EEDBC9B9AA9B8E82766B60564D443B33B9
:400C00002C241D17100A044300000000F8B5C046F8BC08BC9E467047290100003D020000F8B5C046F8BC08BC9E46704701010000400C000080000020800000005800000014
:400C4000000000000100000000007017E02E00000C000000001BB7000000000000000000000000000000000000000000000000000000000000000000070C000000000000ED
:400C8000000000000000000000000000000000000000000000000000000000000000000000000000000000000000000000000000000000000000000098000020000000007C
:400CC00000000000000000000000000000000000000000000000000000000000000000000000000000000000000000000000000000000000000000000000000000000000F4
:400D000000000000000000000000000000000000000000000000000000000000000000000000000000000000000000000000000000000000000000000000000000000000B3
:400D40000000000000000000000000000000000000000000000000000000000000000000000000000000000000000000000000000000000000000000000000000000000073
:400D80000000000000000000000000000000000000000000000000000000000000000000000000000000000000000000000000000000000000000000000000000000000033
:0200000490303A
:02000000933239
:0200000490402A
:200000000000000000000000000000000000000000000000000000000000000000000000E0
:0200000490501A
:0C0000000002190111A900011904A4DB81
:0200000490600A
:0100000001FE
:00000001FF